:100000000C9435010C9466010C9466010C94660105
:100010000C9466010C9466010C9466010C946601C4
:100020000C9466010C9466010C9466010C946601B4
:100030000C9466010C9466010C9466010C946601A4
:100040000C9466010C9466010C9466010C94660194
:100050000C9466010C9466010C9466010C94650680
:100060000C9466010C942F060C9405060C94660102
:100070000C9466010C9466010C9466010C94660164
:100080000C9466010C9466010C9466010C94660154
:100090000C9466010C9466010C9466010C94660144
:1000A0000C9466010C9466010C9466010C94660134
:1000B0000C9466010C9466010C9466010C94660124
:1000C0000C9466010C9466010C9466010C94660114
:1000D0000C9466010C9466010C9466010C94660104
:1000E0000C9466010C9425020C9450030C94B401FA
:1000F0000C945A030C94C3010C9434030C9419030C
:100100000C944C030C941F030C9459030C942E0371
:100110000C9487010C943E030C9417020C94380342
:100120000C9427030C9454030C94A70A0C942303F7
:100130000C9442030C945E030C9446030C942B0322
:100140000C94AA020C945D020000200023002600FB
:1001500029002C002F0032000001000003010601DD
:10016000090100000A0B02090C0D0E080703040127
:10017000000000000000000000000000000000007F
:10018000000000000000000000000000000012114C
:10019000100000000000000000000000000000004F
:1001A00000000000000000000000220025002800E0
:1001B0002B002E003100340002010000050108016F
:1001C0000B0100002100240027002A002D00300030
:1001D000330001010000040107010A0105050505BE
:1001E000070508080808020202020A0A08080404AF
:1001F00004040101010101010101030303030303DD
:100200000303040707070C0C0C0C0C0C0C0C02026B
:10021000020206060606060606060B0B0B0B0B0B68
:100220000B0B0102102020080810204010204080F5
:1002300002010201080402010102040810204080AA
:100240008040201008040201800402018040201038
:100250000804020108040201010204081020408081
:100260000102040810204080A70A11241FBECFEF0E
:10027000D1E2DEBFCDBF00E00CBF2BE1A8E8BAE1C0
:1002800001C01D92A233B207E1F71AE1A0E0B2E08B
:10029000EAE4FAE100E00BBF02C007900D92A83833
:1002A000B107D9F711E0C5E3D1E000E006C021971E
:1002B0000109802FFE010E94F60AC433D10780E0B5
:1002C0000807A9F70E94AF060C94230D0C940000B8
:1002D00090E0FC01EE5DFD4F249184529E4FFC01A5
:1002E0008491882399F090E0880F991FFC01EE53C8
:1002F000FE4FA591B491FC01E855FE4F8591949174
:100300008FB7F894EC91E22BEC938FBF0895AF92E6
:10031000BF92CF92DF92EF92FF920F931F93CF93F2
:10032000DF936C017B018B01040F151FEB015E0154
:10033000AE18BF08C017D10759F06991D601ED91E9
:10034000FC910190F081E02DC6011995892B79F778
:10035000C501DF91CF911F910F91FF90EF90DF903A
:10036000CF90BF90AF900895FC01538D448D252F01
:1003700030E0842F90E0821B930B541710F0CF963F
:10038000089501970895FC01918D828D981761F071
:10039000A28DAE0FBF2FB11D5D968C91928D9F5F88
:1003A0009F73928F90E008958FEF9FEF08952FB77E
:1003B000F89480918D1A90918E1AA0918F1AB09115
:1003C000901A2FBF8093991A90939A1AA0939B1A10
:1003D000B0939C1A81E99AE10E94C30197FF26C05D
:1003E0002FB7F89480918D1A90918E1AA0918F1A40
:1003F000B091901A2FBF4091991A50919A1A60911A
:100400009B1A70919C1A841B950BA60BB70B4091FD
:10041000951A5091961A6091971A7091981A8417AC
:100420009507A607B707B0F28FEF9FEF0895FC017D
:10043000918D828D981731F0828DE80FF11D858D99
:1004400090E008958FEF9FEF0895FC01918D228D2C
:10045000892F90E0805C9F4F821B91098F739927B1
:10046000089581E99AE10E94250221E0892B09F48F
:1004700020E0822F0895FC01A48DA80FB92FB11D93
:10048000A35ABF4F2C91848D90E001968F739927CA
:10049000848FA689B7892C93A089B1898C918370A8
:1004A00080648C93938D848D981306C00288F389A1
:1004B000E02D80818F7D80830895EF92FF920F93CE
:1004C0001F93CF93DF93EC0181E0888F9B8D8C8D00
:1004D00098131AC0E889F989808185FF15C09FB7F4
:1004E000F894EE89FF896083E889F98980818370B7
:1004F000806480839FBF81E090E0DF91CF911F9166
:100500000F91FF90EF900895F62E0B8D10E00F5F86
:100510001F4F0F731127E02E8C8D8E110CC00FB65C
:1005200007FCFACFE889F989808185FFF5CFCE01F4
:100530000E943B02F1CFEB8DEC0FFD2FF11DE35A32
:10054000FF4FF0829FB7F8940B8FEA89FB89808177
:100550008062CFCFCF93DF93EC01888D8823B9F0F1
:10056000AA89BB89E889F9898C9185FD03C08081BE
:1005700086FD0DC00FB607FCF7CF8C9185FFF2CF3B
:10058000808185FFEDCFCE010E943B02E9CFDF9154
:10059000CF91089580E090E0892B29F00E943102EC
:1005A00081110E94000080E090E0892B49F080E0FA
:1005B00090E0892B29F00E94000081110E94000028
:1005C00080E090E0892B49F080E090E0892B29F0D1
:1005D0000E94000081110E94000080E090E0892BC1
:1005E00049F080E090E0892B29F00E940000811101
:1005F0000C94000008958150823108F05AC0E82F11
:10060000F0E08827E95FFC4F8F4F0C94F60A270330
:100610002B0319031F03230359032E033403380349
:100620003E03420346034C035003590354035A0349
:100630005E03809180008F77809380000895809181
:1006400080008F7DF9CF80918000877FF5CF84B5C2
:100650008F7784BD089584B58F7DFBCF8091B000E6
:100660008F778093B00008958091B0008F7DF9CF8F
:10067000809190008F7780939000089580919000F2
:100680008F7DF9CF80919000877FF5CF8091A0007A
:100690008F778093A00008958091A0008F7DF9CF7F
:1006A0008091A000877FF5CF809120018F77809384
:1006B00020010895809120018F7DF9CF8091200144
:1006C000877FF5CFCF93DF93282F30E0F901EE59E4
:1006D000FE4F8491F901EE5DFD4FD491F901E45292
:1006E000FE4FC491CC23A1F081110E94FB02EC2F9C
:1006F000F0E0EE0FFF1FE85BFE4FA591B491EC9187
:10070000ED2381E090E009F480E0DF91CF9108953E
:1007100080E090E0FACF1F93CF93DF93282F30E053
:10072000F901EE59FE4F8491F901EE5DFD4FD49130
:10073000F901E452FE4FC491CC23A9F0162F811188
:100740000E94FB02EC2FF0E0EE0FFF1FE855FE4F7A
:10075000A591B4918FB7F894EC91111108C0D09580
:10076000DE23DC938FBFDF91CF911F910895DE2BA5
:10077000F8CF3FB7F8948091891A90918A1AA09186
:100780008B1AB0918C1A26B5A89B05C02F3F19F083
:100790000196A11DB11D3FBFBA2FA92F982F882701
:1007A000BC01CD01620F711D811D911D42E0660FDC
:1007B000771F881F991F4A95D1F708952F923F926E
:1007C0004F925F926F927F928F929F92AF92BF9261
:1007D000CF92DF92EF92FF920F931F93CF93DF930D
:1007E000CDB7DEB76E970FB6F894DEBF0FBECDBFA4
:1007F0009C012C5A3F4F3E8F2D8FFC013C97FA8372
:10080000E98382E00E94620383E00E94620384E045
:100810000E94620385E00E94620386E00E946203F8
:1008200087E00E94620388E00E9462038B8389E074
:100830000E9462038C838AE00E9462038D838BE0B6
:100840000E9462038E838CE00E9462038F838DE09E
:100850000E94620388878EE00E94620389878FE08E
:100860000E9462038A8780E10E9462038B8781E194
:100870000E9462038C8782E10E9462038D8783E17C
:100880000E9462038E8786E10E9462038F8787E160
:100890000E946203888B88E10E946203898B89E150
:1008A0000E9462038A8B8AE10E9462038B8B8BE138
:1008B0000E9462038C8B8CE10E9462038D8B8DE120
:1008C0000E9462038E8B8EE10E9462038F8B8FE108
:1008D0000E946203888F80E20E946203898F81E216
:1008E0000E9462038A8F82E20E946203E82E83E202
:1008F0000E946203F82E84E20E946203082F85E2C0
:100900000E9462038B8F86E20E9462038C8F87E2D3
:100910000E946203182F88E20E946203882E89E2F7
:100920000E946203982E8AE20E946203A82E8BE244
:100930000E946203B82E8CE20E946203C82E8DE2F0
:100940000E946203D82E8EE20E946203282E8FE25C
:100950000E946203382E80E30E946203482E81E3E6
:100960000E946203582E82E30E946203682E85E390
:100970000E946203782EED8DFE8D608185E30E94DA
:100980008B03ED8DFE8D628182E30E948B03ED8DE2
:10099000FE8D648181E30E948B03ED8DFE8D668167
:1009A00080E30E948B03ED8DFE8D60858FE20E94B7
:1009B0008B03ED8DFE8D62858EE20E948B03622D8E
:1009C00088E20E948B03632D89E20E948B03642DD1
:1009D0008AE20E948B03652D8BE20E948B03662DB9
:1009E0008CE20E948B03672D8DE20E948B03682DA1
:1009F00082E20E948B03692D83E20E948B036A2DA1
:100A000084E20E948B036B2D85E20E948B036C2D88
:100A100086E20E948B036D2D87E20E948B036E2D70
:100A20008CE10E948B036F2D8DE10E948B03602F60
:100A30008EE10E948B036B8D8FE10E948B036C8D86
:100A400080E20E948B03612F81E20E948B036D89FB
:100A500086E10E948B036E8987E10E948B036F8978
:100A600088E10E948B03688D89E10E948B03698D68
:100A70008AE10E948B036A8D8BE10E948B036F8554
:100A80008EE00E948B0368898FE00E948B03698946
:100A900080E10E948B036A8981E10E948B036B894C
:100AA00082E10E948B036C8983E10E948B0369853C
:100AB00088E00E948B036A8589E00E948B036B8526
:100AC0008AE00E948B036C858BE00E948B036D850E
:100AD0008CE00E948B036E858DE00E948B036B81FE
:100AE00082E00E948B036C8183E00E948B036D8106
:100AF00084E00E948B036E8185E00E948B036F81EE
:100B000086E00E948B03688587E00E948B030E9429
:100B1000B9034B015C0184EFC82EDD24D394E12C92
:100B2000F12C0E94B903681979098A099B09683E6A
:100B3000734081059105A8F3F1E0CF1AD108E108CF
:100B4000F10828EE820E23E0921EA11CB11CC114F4
:100B5000D104E104F10429F78D8D9E8D0C979E8FB1
:100B60008D8FE981FA818E179F0709F04ACE6E9624
:100B70000FB6F894DEBF0FBECDBFDF91CF911F91AE
:100B80000F91FF90EF90DF90CF90BF90AF909F902C
:100B90008F907F906F905F904F903F902F9008952F
:100BA000FC0101900020E9F73197AF01481B590B78
:100BB000BC0181E99AE10C9487010F931F93CF93B5
:100BC000DF93EC0188819981009759F02A813B815C
:100BD0002617370730F081E0DF91CF911F910F91F9
:100BE00008958B016F5F7F4F0E94230C009759F08F
:100BF000998388831B830A832C813D81232B59F79A
:100C0000FC011082E8CF80E0E7CF1F920F920FB671
:100C10000F9211240BB60F922F933F934F935F9334
:100C20006F937F938F939F93AF93BF93EF93FF93B4
:100C300081E99AE10E943B02FF91EF91BF91AF9150
:100C40009F918F917F916F915F914F913F912F91E4
:100C50000F900BBE0F900FBE0F901F9018951F9214
:100C60000F920FB60F9211240BB60F922F938F9302
:100C70009F93EF93FF93E091A11AF091A21A8081C4
:100C8000E091A71AF091A81A82FD1DC09081809171
:100C9000AA1A8F5F8F732091AB1A821741F0E091EF
:100CA000AA1AF0E0EF56F54E958F8093AA1AFF919D
:100CB000EF919F918F912F910F900BBE0F900FBED0
:100CC0000F901F9018958081F2CF1F920F920FB650
:100CD0000F9211242F933F938F939F93AF93BF93C2
:100CE00080918D1A90918E1AA0918F1AB091901ABE
:100CF0003091881A23E0230F2D3758F50196A11D56
:100D0000B11D2093881A80938D1A90938E1AA09308
:100D10008F1AB093901A8091891A90918A1AA09193
:100D20008B1AB0918C1A0196A11DB11D8093891A5E
:100D300090938A1AA0938B1AB0938C1ABF91AF919B
:100D40009F918F913F912F910F900FBE0F901F9009
:100D5000189526E8230F0296A11DB11DD2CFCF937F
:100D6000DF93CDB7DEB7C159D1090FB6F894DEBF16
:100D70000FBECDBF789484B5826084BD84B5816098
:100D800084BD85B5826085BD85B5816085BD809156
:100D90006E00816080936E001092810080918100CE
:100DA00082608093810080918100816080938100C6
:100DB000809180008160809380008091B100846088
:100DC0008093B1008091B00081608093B0008091E9
:100DD0009100826080939100809191008160809366
:100DE0009100809190008160809390008091A1009B
:100DF00082608093A1008091A10081608093A10016
:100E00008091A00081608093A00080912101826088
:100E10008093210180912101816080932101809143
:100E2000200181608093200180917A00846080930A
:100E30007A0080917A00826080937A0080917A00B3
:100E4000816080937A0080917A00806880937A0034
:100E50001092C100E091A11AF091A21A82E0808361
:100E6000E0919D1AF0919E1A1082E0919F1AF091E4
:100E7000A01A8FEC80831092A91AE091A51AF09124
:100E8000A61A86E08083E091A31AF091A41A8081CB
:100E900080618083E091A31AF091A41A8081886018
:100EA0008083E091A31AF091A41A808180688083E6
:100EB000E091A31AF091A41A80818F7D808382E053
:100EC0000E94680183E00E94680184E00E9468013A
:100ED00085E00E94680186E00E94680187E00E9428
:100EE000680188E00E94680189E00E9468018AE048
:100EF0000E9468018BE00E9468018CE00E946801FA
:100F00008DE00E9468018EE00E9468018FE00E94DF
:100F1000680180E10E94680181E10E94680182E12C
:100F20000E94680183E10E94680186E10E946801D5
:100F300087E10E94680188E10E94680189E10E94BE
:100F400068018AE10E9468018BE10E9468018CE1DE
:100F50000E9468018DE10E9468018EE10E94680193
:100F60008FE10E94680180E20E94680181E20E9494
:100F7000680182E20E94680183E20E94680184E2C3
:100F80000E94680185E20E94680186E20E94680171
:100F900087E20E94680188E20E94680189E20E945B
:100FA00068018AE20E9468018BE20E9468018CE27B
:100FB0000E9468018DE20E9468018EE20E94680131
:100FC0008FE20E94680180E30E94680181E30E9431
:100FD000680182E30E94680185E30E946801CE01F6
:100FE00001967C018AE0882E912CA12CB12C81E9FC
:100FF0009AE10E942502892B09F4A6C2C457DF4F4B
:1010000019821882CC58D040C257DF4F19821882FB
:10101000CE58D040C057DF4F19821882C059D040F7
:1010200070E060E0CE0184579F4F0E94DD05C457F9
:10103000DF4F28813981CC58D040811149C021151A
:10104000310519F0C9010E949A0BC457DF4F19826C
:101050001882CC58D040C057DF4F19821882C0592F
:10106000D040C257DF4F19821882CE58D0400E941C
:10107000D70197FD39C08A309105B1F189831A8271
:10108000C057DF4F08811981C059D0400F5F1F4FF3
:10109000B801CE0184579F4F0E94DD05882339F3A4
:1010A000C457DF4F28813981CC58D040C057DF4F1B
:1010B00088819981C059D040B701820F931F0E9447
:1010C0000D0DC057DF4F19830883C059D040CFCFD3
:1010D000C057DF4F19821882C059D04066E87AE1C4
:1010E000C9010E940D0DC3CF88E79AE10E94D00587
:1010F000C057DF4F48815981C059D040C457DF4F96
:1011000068817981CC58D04081E99AE10E948701B9
:1011100084E89AE10E94D005CA57DF4F19821882ED
:10112000C658D040C857DF4F19821882C858D040DF
:10113000C657DF4F19821882CA58D040C457DF4FB4
:1011400008811981CC58D0400115110561F1C057B3
:10115000DF4FC880D980C059D040B601CE018A5730
:101160009F4F0E94DD05CA57DF4F28813981C6583D
:10117000D0408111BBC12115310519F0C9010E9470
:101180009A0BCA57DF4F19821882C658D040C657EB
:10119000DF4F19821882CA58D040C857DF4F1982D2
:1011A0001882C858D040C657DF4F48815981CA5865
:1011B000D040CA57DF4F68817981C658D04081E955
:1011C0009AE10E94870184E89AE10E94D005C657FF
:1011D000DF4F08811981CA58D0400F3F100729F00E
:1011E0000115110509F08DC11982F7010190002048
:1011F000E9F73197EE19FF099F0150E040E0CB5726
:10120000DF4F1882C558D04005E610E00C0F1D1FB7
:10121000005E1F4FCA01B901A50194010E94D40AC2
:10122000605DF80162938F0121153105410551057B
:1012300089F7309719F0CF010E94D00584E89AE130
:101240000E94D0056701F70101900020E9F731976E
:10125000EE19FF09C6018E199F098E179F0708F026
:101260005FC1F60111916F01612F81E99AE10E943E
:101270005D0284E89AE10E94D00580E09AE111368F
:1012800009F431C180EA99E1123609F42CC180E4F5
:1012900099E1133609F427C180EE98E1143609F478
:1012A00022C180E898E1153609F41DC180E298E179
:1012B000163609F418C180EC97E1173609F413C10A
:1012C00080E697E1183609F40EC180E097E11936FF
:1012D00009F409C180EA96E11A3609F404C180E4F0
:1012E00096E11B3609F4FFC080EE95E11C3609F447
:1012F000FAC080E895E11D3609F4F5C080E295E179
:101300001E3609F4F0C080EC94E11F3609F4EBC0FE
:1013100080E694E1103709F4E6C080E094E11137EB
:1013200009F4E1C080EA93E1123709F4DCC080E4FB
:1013300093E1133709F4D7C080EE92E1143709F432
:10134000D2C080E892E1153709F4CDC080E292E185
:10135000163709F4C8C080EC91E1173709F4C3C00F
:1013600080E691E1183709F4BEC080E091E11937B9
:1013700009F4B9C080EA90E11A3709F4B4C080E4F6
:1013800090E1103309F4AFC080EE9FE0113309F40F
:10139000AAC080E89FE0123309F4A5C080E29FE074
:1013A000133309F4A0C080EC9EE0143309F49BC011
:1013B00080E69EE0153309F496C080E09EE0163387
:1013C00009F491C080EA9DE0173309F48CC080E4F1
:1013D0009DE0183309F487C080EE9CE0193309F4CE
:1013E00082C080E89CE0113409F47DC080E29CE07A
:1013F000123409F478C080EC9BE0133409F473C014
:1014000080E69BE0143409F46EC080E09BE0153464
:1014100009F469C080EA9AE0163409F464C080E4F3
:101420009AE0173409F45FC080EE99E0183409F4AB
:101430005AC080E899E0193409F455C080E299E077
:101440001A3409F450C080EC98E01B3409F44BC006
:1014500080E698E01C3409F446C080E098E01D3432
:1014600009F441C080EA97E01E34E9F180E497E096
:101470001F34C9F180EE96E01035A9F180E896E0BE
:10148000113589F180E296E0123569F180EC95E042
:10149000133549F180E695E0143529F180E095E0B7
:1014A000153509F180EA94E01635E9F080E494E01E
:1014B0001735C9F080EE93E01835A9F080E893E085
:1014C000193589F080E293E01A3569F080EC92E0FA
:1014D0001B3249F080E692E01D3229F0153209F006
:1014E000B2CE80E092E00E94DE03ADCEC657DF4F61
:1014F000D982C882CA58D040B801C9010E940D0DD6
:1015000052CECA57DF4F68817981C658D040A801B2
:10151000C7010E94140DF701E00FF11F108265CE84
:10152000CA57DF4F88819981C658D040009711F083
:101530000E949A0BC457DF4F88819981CC58D040C4
:10154000009711F00E949A0B0E94CA0250CDE1E967
:10155000FAE11382128288EE93E0A0E0B0E0848387
:101560009583A683B7838AE69AE19183808385EC8D
:1015700090E09587848784EC90E09787868780EC5D
:1015800090E0918B808B81EC90E0938B828B82EC4E
:1015900090E0958B848B86EC90E0978B868B118EF8
:1015A000128E138E148E0895A1E21A2EAA1BBB1B55
:1015B000FD010DC0AA1FBB1FEE1FFF1FA217B3071F
:1015C000E407F50720F0A21BB30BE40BF50B661F35
:1015D000771F881F991F1A9469F7609570958095F9
:1015E00090959B01AC01BD01CF010895EE0FFF1F47
:1015F000881F8BBF0790F691E02D19940F931F93CE
:10160000CF93DF938230910510F482E090E0E09177
:10161000301BF091311B30E020E0B0E0A0E03097CB
:1016200099F42115310509F44AC0281B390B2430DF
:101630003105D8F58A819B816115710589F1FB011E
:1016400093838283FE0111C0408151810281138105
:1016500048175907E0F04817590799F4109761F0B7
:1016600012960C93129713961C933296CF01DF912A
:10167000CF911F910F9108950093301B1093311B50
:10168000F4CF2115310551F04217530738F0A90165
:10169000DB019A01BD01DF01F801C1CFEF01F9CFF4
:1016A0009093311B8093301BCDCFFE01E20FF31FCF
:1016B000819391932250310939832883D7CF209188
:1016C0002E1B30912F1B232B41F42091621A309155
:1016D000631A30932F1B20932E1B2091601A309198
:1016E000611A2115310541F42DB73EB74091641AB6
:1016F0005091651A241B350BE0912E1BF0912F1B86
:10170000E217F307A0F42E1B3F0B2817390778F0D8
:10171000AC014E5F5F4F2417350748F04E0F5F1F37
:1017200050932F1B40932E1B819391939FCFF0E0FA
:10173000E0E09CCFCF93DF930097E9F0FC01329774
:1017400013821282A091301BB091311BED0130E069
:1017500020E01097A1F420813181820F931F209106
:101760002E1B30912F1B2817390709F061C0F09309
:101770002F1BE0932E1BDF91CF910895EA01CE1726
:10178000DF07E8F54A815B819E0141155105B1F7FC
:10179000E901FB83EA8349915991C40FD51FEC17E6
:1017A000FD0761F4808191810296840F951FE90104
:1017B00099838883828193819B838A83F0E0E0E030
:1017C00012968D919C9113970097B9F52D913C91AC
:1017D0001197CD010296820F931F20912E1B3091FD
:1017E0002F1B2817390739F6309751F51092311B06
:1017F0001092301BB0932F1BA0932E1BBCCFD38312
:10180000C28340815181840F951FC817D90761F4A5
:101810004E5F5F4F88819981480F591F51834083E4
:101820008A819B81938382832115310509F0B0CF92
:10183000F093311BE093301B9ECFFD01DC01C0CF44
:1018400013821282D7CF4F925F926F927F928F92C4
:101850009F92AF92BF92CF92DF92EF92FF920F933F
:101860001F93CF93DF938C01009799F4CB01DF9105
:10187000CF911F910F91FF90EF90DF90CF90BF908D
:10188000AF909F908F907F906F905F904F900C944F
:10189000FE0AFC01E60FF71F9C0122503109E217F6
:1018A000F30708F4AEC0D901CD91DC911197C617AA
:1018B000D70720F1C530D10578F0CE0104978617FF
:1018C000970750F0C61BD70B2297C193D1936D9306
:1018D0007C93CF010E949A0BC801DF91CF911F9199
:1018E0000F91FF90EF90DF90CF90BF90AF909F90BF
:1018F0008F907F906F905F904F9008955B01AC1A2E
:10190000BD0A4C018C0E9D1EA091301BB091311B65
:10191000512C412CF12CE12C109731F580912E1B8C
:1019200090912F1B8815990509F05CC04616570643
:1019300008F058C08091601A9091611A009741F4A4
:101940008DB79EB74091641A5091651A841B950B10
:10195000E817F90708F055C0F0932F1BE0932E1BF2
:10196000F90171836083B8CF8D919C911197129684
:101970006C90129713967C901397A815B90559F59A
:101980006C0142E0C40ED11CCA14DB0420F1AC018E
:101990004A195B09DA011296159780F06282738208
:1019A00051834083D9016D937C93E114F10471F06C
:1019B000D7011396FC93EE9312978ECF22968C0F3D
:1019C0009D1FF90191838083F301EFCFF093311BC9
:1019D000E093301B81CF4816590608F42C017D0195
:1019E000D3019ACFCB010E94FE0A7C01009749F0F7
:1019F000AE01B8010E94040DC8010E949A0B870134
:101A00006BCF10E000E068CFFB01DC0102C0019069
:101A10000D9241505040D8F70895FB01DC01019030
:101A20000D920020E1F70895FB01DC014150504088
:101A300048F001900D920020C9F701C01D9241505D
:0A1A40005040E0F70895F894FFCF3E
:101A4A00000000000000000000000000010001008A
:101A5A000100000000000000010000000100000079
:101A6A000100000001000100010001000000000067
:101A7A00000000000100000000000000000000005B
:101A8A000100010001000100000001000000010046
:101A9A000000010001000000000001000100010037
:101AAA00000000000000000000000000000000002C
:101ABA00000000000000000000000000000000001C
:101ACA00000000000000000000000000000000000C
:101ADA0000000000000000000000000001000100FA
:101AEA0001000100010001000000000000000000E8
:101AFA0000000000000000000000000000000000DC
:101B0A0000000000000000000000000000000000CB
:101B1A0000000000000000000000000000000000BB
:101B2A0000000000000000000000010000000000AA
:101B3A000000000000000100000000000000010099
:101B4A000100010001000100000000000000010086
:101B5A00000000000000000000000100000000007A
:101B6A00000000000000000000000000000000006B
:101B7A00000000000000000000000000000000005B
:101B8A000000000001000100010001000100010045
:101B9A00000000000000000001000000000000003A
:101BAA000100000000000000000001000000000029
:101BBA000000000001000100010001000100010015
:101BCA00000000000000000000000000000000000B
:101BDA0000000000000000000000010000000000FA
:101BEA0000000100000000000100000001000000E8
:101BFA0000000000010000000100000000000000D9
:101C0A0000000100000000000000000000000100C8
:101C1A0000000000000000000000010000000000B9
:101C2A0000000000000000000000000000000000AA
:101C3A000000000000000000010000000000000099
:101C4A000000010000000100000000000100000087
:101C5A000000000001000100000000000000010077
:101C6A000000000001000000010000000000000068
:101C7A000000010000000000000000000000000059
:101C8A00000000000000000000000000000000004A
:101C9A00000000000000000000000000000000003A
:101CAA000000000001000000010001000000010026
:101CBA000100000001000100000001000100000015
:101CCA000100010000000100010000000100010004
:101CDA0000000100010001000100010001000100F3
:101CEA0000000000000000000000000000000000EA
:101CFA0000000000000000000000010000000000D9
:101D0A0000000100000001000000000000000100C6
:101D1A0000000100000000000000010000000000B7
:101D2A0001000000010000000000000000000000A7
:101D3A000000000000000000000001000000000098
:101D4A000000000000000000000000000000000089
:101D5A000000000000000000000001000000000078
:101D6A000000010000000100000000000000010066
:101D7A000000010000000000000001000000010056
:101D8A000000000000000100000001000000000047
:101D9A000000010000000000010001000100000035
:101DAA000000000000000000000000000000000029
:101DBA000000000000000000000001000100010016
:101DCA000100010000000000000001000000000006
:101DDA0000000000000001000000000000000000F8
:101DEA0000000100000000000000000000000100E7
:101DFA0000000000000000000000010000000000D8
:101E0A0000000000000000000000000000000000C8
:101E1A0000000000000000000000000000000100B7
:101E2A0001000100000000000100000000000000A5
:101E3A000000000001000100000000000000000096
:101E4A000000000001000100000000000000000086
:101E5A000000010000000000010001000100000074
:101E6A000000000000000000000000000000000068
:101E7A000000000000000000000000000100010056
:101E8A000100000000000000010000000000010045
:101E9A000000000001000000000001000000000036
:101EAA000100010001000000000000000100000024
:101EBA000000010000000000010000000000010015
:101ECA000000000001000100010000000000010004
:101EDA0000000000000001000000010000000000F6
:101EEA0000000100000001000000000000000100E5
:101EFA0000000100000000000000010000000000D6
:101F0A0001000100010000000000000000000100C3
:101F1A0000000000000000000000000001000100B5
:101F2A0000000000000000000000000000000000A7
:101F3A000000000000000000000000000100010095
:101F4A000100000000000000010000000000010084
:101F5A000000000001000000000001000000000075
:101F6A000100010001000000000000000100000063
:101F7A000000000000000000010000000000000056
:101F8A000000000000000000000000000000000047
:101F9A000000000000000000000000000100010035
:101FAA000100000000000100000000000000010024
:101FBA000000010000000000000001000000010014
:101FCA000000000000000100000001000000000005
:101FDA0000000100000000000100010001000000F3
:101FEA0000000000000000000000000000000000E7
:101FFA0000000000000000000000010000000000D6
:10200A0001000000000001000100000001000000C2
:10201A0000000100010000000100000000000100B2
:10202A0000000100010000000000010000000100A2
:10203A000100000000000100000000000100000093
:10204A000000000000000000000000000000010085
:10205A000000000001000000000001000000010073
:10206A000000010001000000010001000000010061
:10207A000100000001000100000001000100000051
:10208A000100010000000100010000000000000042
:10209A000000010001000000000000000000010033
:1020AA000000000000000000000000000000000026
:1020BA000000000000000000000001000000000015
:1020CA000000000000000100000000000000000005
:1020DA0000000100000000000000000000000100F4
:1020EA0000000000000000000000010000000000E5
:1020FA0000000000000001000100010001000000D2
:10210A0000000000000000000000000000000000C5
:10211A0000000000000000000000010000000000B4
:10212A0001000000000001000000010000000000A2
:10213A000000010001000000000000000000010092
:10214A000100000000000000000001000000010082
:10215A000000000000000100000000000100000073
:10216A000000000000000000000000000000000065
:10217A000000000000000000000001000100010052
:10218A000100000000000000000000000100000043
:10219A000000000000000000010000000000000034
:1021AA000000000001000000000000000000000024
:1021BA000100000000000100010001000000000011
:1021CA000000000000000000000000000000000005
:1021DA0000000000000000000000000001000100F3
:1021EA0001000000000000000000010000000000E3
:1021FA0000000000000001000000000000000000D4
:10220A0000000100000000000000000000000100C2
:10221A0000000000000000000100010001000000B1
:10222A0000000000000000000000000000000000A4
:10223A000000000000000000000001000000000093
:10224A000100000000000100000000000100000081
:10225A00000001000100010001000000000001006F
:10226A000000000001000000000001000000000062
:10227A000100000000000100000000000100000051
:10228A000000000000000000000000000000000044
:10229A000000000000000000000001000100010031
:1022AA000100000001000100000000000000000021
:1022BA000100000001000100000000000100000010
:1022CA000000010000000000010001000000010000
:1022DA0000000000000001000100010001000000F0
:1022EA0000000000000000000000000000000000E4
:1022FA0000000000000000000000010001000100D1
:10230A0001000000000001000000000000000000C1
:10231A0000000100010001000100000000000100AE
:10232A0000000000000000000000010000000000A2
:10233A000000000000000100000000000000000092
:10234A000000000000000000000000000000000083
:10235A000000000000000000000001000100010070
:10236A000100000000000100000000000000000061
:10237A00000001000100010001000000000001004E
:10238A000000000000000000000001000000000042
:10239A00000000000000010001000100010000002F
:1023AA000000000000000000000000000000000023
:1023BA000000000000000000000001000100010010
:1023CA000000000000000100000000000100000001
:1023DA0000000100000000000100000000000100F0
:1023EA0000000000010000000000010000000000E1
:1023FA0001000000000001000100010000000000CF
:10240A0000000000000000000000000000000000C2
:10241A0000000000000000000000010001000100AF
:10242A0001000000010000000000000000000000A0
:10243A000100000000000000000000000100000090
:10244A000000000000000000010000000000000081
:10245A00000000000000010001000100010000006E
:10246A000000000000000000000000000000000062
:10247A00000000000000000000000100010001004F
:10248A00010000000000010000000000010000003F
:10249A00000001000100010000000000000001002E
:1024AA00010001000000000000000100000000001F
:1024BA00010000000000010001000100010000000D
:1024CA000000000000000000000000000000000002
:1024DA0000000000000000000000000001000000F1
:1024EA0000000000000001000000010000000000E0
:1024FA0000000100000001000000000000000100CF
:10250A0001000100000000000000010000000100BD
:10251A0000000000000001000000010000000000AF
:10252A0000000000000000000000000000000000A1
:10253A00000000000000000000000000010001008F
:10254A00010000000000010000000000000001007E
:10255A00000001000000000000000100000000006F
:10256A00010001000100010000000000000000005D
:10257A00000001000000010001000100010000004C
:10258A000000000000000000000000000000000041
:10259A00000000000000000000000100010001002E
:1025AA00010000000000010000000000010000001E
:1025BA00000000000100010000000000000001000E
:1025CA0000000000010000000000010000000000FF
:1025DA0001000000000001000100010000000000ED
:1025EA0000000000000000000000000000000000E1
:1025FA0000000000000000000000010001000100CE
:10260A0001000000000000000000000001000000BE
:10261A0000000000000001000000000000000000AF
:10262A00000001000000000000000000010000009E
:10263A00000000000000000001000000000000008F
:10264A000000000000000000000000000000000080
:10265A00000000000000000000000000010001006E
:10266A00010000000000010001000000000000005D
:10267A00000001000100010001000000000001004B
:10268A00000000000100000000000100000000003E
:10269A00010000000000000001000100010000002C
:1026AA000000000000000000000000000000000020
:1026BA00000000000000000000000100010001000D
:1026CA0001000000000001000000000000000000FE
:1026DA0000000100010001000000000000000000ED
:1026EA0000000000010000000000000000000000DF
:1026FA0001000000000001000100010000000000CC
:10270A0000000000000000000000000000000000BF
:10271A0000000000000000000000010001000000AD
:10272A00000000000000010001000000000000009D
:10273A00010000000100000000000000010000008C
:10274A00010000000000000001000100010001007A
:10275A00010000000000000000000000010000006D
:10276A00000000000000000000000000000000005F
:10277A00000000000000000000000100010001004C
:10278A00010000000000000000000000010000003D
:10279A00000000000100010000000000000000002D
:1027AA00000000000100000000000000000000001E
:1027BA00010000000000010001000100000000000B
:1027CA0000000000000000000000000000000000FF
:1027DA0000000000000000000000010001000100EC
:1027EA0000000000010000000000010000000000DD
:1027FA0000000000000001000000000000000000CE
:10280A0001000000000000000000010000000000BC
:10281A0000000000000001000100010001000000AA
:10282A00000000000000000000000000000000009E
:10283A00000000000000000000000100010000008C
:10284A00000000000100000001000000000000007C
:10285A00000000000100000000000000000000006D
:10286A00010000000000000000000000010000005C
:10287A00000000000000010001000100010000004A
:10288A00000000000000000000000000000000003E
:10289A00000000000000000000000000010001002C
:1028AA00010000000000010000000000000001001B
:1028BA00000001000000000000000100000001000B
:1028CA0000000000000001000000010000000000FC
:1028DA0000000100000000000100010001000000EA
:1028EA0000000000000000000000000000000000DE
:1028FA0000000000000000000000000000000000CE
:10290A0000000000010001000100010001000100B7
:10291A0000000000000000000100000000000000AC
:10292A00010000000000000000000100000000009B
:10293A000000000001000100010001000100010087
:10294A00000000000000000000000000000001007C
:10295A00000001000000000000000100000001006A
:10296A00000000000000010000000100000000005B
:10297A00000001000100000000000000000000004B
:10298A00010000000000000000000000010000003B
:10299A00000000000100010000000000000000002B
:1029AA00000000000000000000000000000000001D
:1029BA00000000000000000001000000000000000C
:1029CA0000000100000001000000000001000000FA
:1029DA0000000000010001000000000000000100EA
:1029EA0000000000010000000100000000000000DB
:1029FA0000000100000000000000000000000000CC
:102A0A0000000000000000000000000000000000BC
:102A1A0000000000000000000000000000000000AC
:102A2A000000000001000000010001000000010098
:102A3A000100000001000100000001000100000087
:102A4A000100010000000100010000000100010076
:102A5A000000010001000100010001000100010065
:102A6A00000000000000000000000000000000005C
:102A7A00000000000000000000000000000000004C
:102A8A00000000000000010000000100000000003A
:102A9A000000010000000100000000000000010029
:102AAA000000010000000000000001000000010019
:102ABA00000000000000000001000000000000000B
:102ACA0000000000000000000000000000000000FC
:102ADA0000000000000000000000000001000000EB
:102AEA0001000000000000000100000001000000D9
:102AFA0000000000010000000100000000000000CA
:102B0A0001000000010000000000000001000000B8
:102B1A0001000000000000000100010001000000A7
:102B2A00000000000000000000000000000000009B
:102B3A000100000000000000000000000100000089
:102B4A000000000000000100010001000000000078
:102B5A00000000000100000000000000000000006A
:102B6A000100000000000000000000000100000059
:102B7A000100000000000000000001000100000048
:102B8A00000000000000000000000000000000003B
:102B9A00000000000000000000000000000000002B
:102BAA000000000000000100010001000000000018
:102BBA000000010000000000000000000000010009
:102BCA0001000100000000000000000000000100F8
:102BDA0000000000000001000100010000000000E8
:102BEA0000000000000000000000000000000000DB
:102BFA0000000000000000000000000000000000CB
:102C0A0000000000000001000100010001000000B6
:102C1A0000000100000000000100000000000100A7
:102C2A000000000000000000000001000000000099
:102C3A000000000000000100000000000000000089
:102C4A000000000000000000000000000100010078
:102C5A000100010000000000010000000000010066
:102C6A000000000001000000000001000000000058
:102C7A000100000000000100000000000100010046
:102C8A000100010001000000000000000000000037
:102C9A000100000000000000000000000100000028
:102CAA000000000000000000000000000000010019
:102CBA000100010001000000000001000000000006
:102CCA0001000000000001000000000001000000F7
:102CDA0000000100000000000100000000000100E7
:102CEA0001000100000000000000010000000000D7
:102CFA0000000000000001000000000000000000C9
:102D0A0000000000000000000000000000000000B9
:102D1A0000000000000000000000000000000000A9
:102D2A000000000001000100010001000000000095
:102D3A000100000000000100000000000100000086
:102D4A000000010000000000010000000000010076
:102D5A000000000001000100010001000000000065
:102D6A000000000000000000000000000000000059
:102D7A000000000000000000000000000000000049
:102D8A000000000000000100010001000100000035
:102D9A000000010000000000010000000000010026
:102DAA000000000001000000000001000000000017
:102DBA000100000000000100000000000100000006
:102DCA0000000000000000000000000000000000F9
:102DDA0000000000000000000000000000000000E9
:102DEA0000000000000001000100010001000000D5
:102DFA0000000100000001000000010000000100C5
:102E0A0000000100000001000000010000000100B4
:102E1A0000000100000001000000010000000100A4
:102E2A000000000000000000000000000000000098
:102E3A000000000000000000000000000000010087
:102E4A000000000000000000000001000000000077
:102E5A000000000000000100000000000000000067
:102E6A000000010000000000000000000000010056
:102E7A000000000000000000000001000000000047
:102E8A000000000000000000000000000000010037
:102E9A000000000000000000000001000000000027
:102EAA000000000000000100000000000100000016
:102EBA000000010000000100000000000000010005
:102ECA0001000000000000000000010000000100F5
:102EDA0000000000000001000000000001000000E6
:102EEA0000000000000000000000000000000000D8
:102EFA0000000100010001000000000000000000C5
:102F0A0000000100000000000000000000000100B5
:102F1A0000000000000000000000010000000000A6
:102F2A000000000000000100000000000000000096
:102F3A000000010000000000000001000100000084
:102F4A000000000000000000000000000000000077
:102F5A000000000001000000000000000000000066
:102F6A000000000000000000000000000100000056
:102F7A000000000000000000010000000000000046
:102F8A000000000001000000000000000000000036
:102F9A000100000000000000000000000100000025
:102FAA000000000000000000000000000000010016
:102FBA000000000000000000000001000000000006
:102FCA0000000000000001000100010000000000F4
:102FDA0000000100000000000100000000000100E4
:102FEA0000000000010000000000010000000000D5
:102FFA0001000000000001000000000001000000C4
:10300A0000000000000000000000000000000100B5
:10301A0001000100010001000100000000000000A1
:10302A000100000001000100010001000000000091
:10303A000100000000000000000000000100010083
:10304A000100010001000000000000000000000073
:10305A000100000001000100010001000100000060
:10306A000000000000000000000000000000000056
:10307A000000010001000100000000000100000042
:10308A000000000001000100010001000100000031
:10309A000000000001000000000000000000000025
:1030AA000100000000000000000000000100000014
:1030BA000000000000000000010000000000000005
:1030CA0000000000000000000000000000000000F6
:1030DA0000000000000000000000000000000000E6
:1030EA0000000000000000000100010000000000D4
:1030FA0000000100000000000100000000000100C3
:10310A0001000100010000000000010000000000B1
:10311A0000000000000000000100010001000000A2
:10312A000000000000000000000000000000000095
:10313A000000000001000000000000000000000084
:10314A000100000000000000010001000100000071
:10315A000000010000000000010000000000010062
:10316A000000000001000000000001000000000053
:10317A000100000000000000010001000100000041
:10318A000000000000000000000000000000000035
:10319A000000000000000000000000000000000025
:1031AA000000000000000000010001000100000012
:1031BA000000010000000000000000000000010003
:1031CA0000000000000000000000010000000000F4
:1031DA0000000000000000000100010001000000E2
:1031EA0000000000000000000000000000000100D4
:1031FA0000000000000000000000010000000000C4
:10320A0000000000000001000100010001000000B0
:10321A0000000100000000000100000000000100A1
:10322A000000000001000000000001000000000092
:10323A000100000000000100010001000000000080
:10324A000000000000000000000000000000000074
:10325A000000000000000000000000000000000064
:10326A000000000000000100010001000100000050
:10327A000000000000000000010000000000010042
:10328A000100010001000000000001000000000030
:10329A00010000000000010001000100010000001F
:1032AA000000321B8000000000005D028701B401AB
:1032BA00AA022502C3011702596F75207479706535
:0832CA00643A20000D0A000027
:00000001FF
